{
  "_format": "hh-sol-artifact-1",
  "contractName": "SwapToken",
  "sourceName": "contracts/SwapToken.sol",
  "abi": [
    {
      "inputs": [
        {
          "internalType": "contract IERC20",
          "name": "_baseTokenCAddr",
          "type": "address"
        },
        {
          "internalType": "contract IERC20",
          "name": "_usdtTokenCAddr",
          "type": "address"
        }
      ],
      "stateMutability": "nonpayable",
      "type": "constructor"
    },
    {
      "anonymous": false,
      "inputs": [
        {
          "indexed": true,
          "internalType": "address",
          "name": "from",
          "type": "address"
        },
        {
          "indexed": true,
          "internalType": "address",
          "name": "to",
          "type": "address"
        },
        {
          "indexed": false,
          "internalType": "uint256",
          "name": "amount",
          "type": "uint256"
        }
      ],
      "name": "SwapSuccessful",
      "type": "event"
    },
    {
      "anonymous": false,
      "inputs": [
        {
          "indexed": true,
          "internalType": "address",
          "name": "owner",
          "type": "address"
        },
        {
          "indexed": true,
          "internalType": "enum SwapToken.Currency",
          "name": "_currencyName",
          "type": "uint8"
        },
        {
          "indexed": false,
          "internalType": "uint256",
          "name": "amount",
          "type": "uint256"
        }
      ],
      "name": "WithdrawSuccessful",
      "type": "event"
    },
    {
      "inputs": [],
      "name": "baseToken",
      "outputs": [
        {
          "internalType": "contract IERC20",
          "name": "",
          "type": "address"
        }
      ],
      "stateMutability": "view",
      "type": "function"
    },
    {
      "inputs": [],
      "name": "getContractBalance",
      "outputs": [
        {
          "internalType": "uint256",
          "name": "contractUsdtbal_",
          "type": "uint256"
        },
        {
          "internalType": "uint256",
          "name": "contractBasel_",
          "type": "uint256"
        }
      ],
      "stateMutability": "view",
      "type": "function"
    },
    {
      "inputs": [
        {
          "internalType": "address",
          "name": "_from",
          "type": "address"
        },
        {
          "internalType": "uint256",
          "name": "_amount",
          "type": "uint256"
        }
      ],
      "name": "swapBaseToUsdt",
      "outputs": [],
      "stateMutability": "nonpayable",
      "type": "function"
    },
    {
      "inputs": [
        {
          "internalType": "address",
          "name": "_from",
          "type": "address"
        },
        {
          "internalType": "uint256",
          "name": "_amount",
          "type": "uint256"
        }
      ],
      "name": "swapUsdtToBase",
      "outputs": [],
      "stateMutability": "nonpayable",
      "type": "function"
    },
    {
      "inputs": [],
      "name": "usdtToken",
      "outputs": [
        {
          "internalType": "contract IERC20",
          "name": "",
          "type": "address"
        }
      ],
      "stateMutability": "view",
      "type": "function"
    },
    {
      "inputs": [
        {
          "internalType": "enum SwapToken.Currency",
          "name": "_currencyName",
          "type": "uint8"
        },
        {
          "internalType": "uint256",
          "name": "_amount",
          "type": "uint256"
        }
      ],
      "name": "withdraw",
      "outputs": [],
      "stateMutability": "nonpayable",
      "type": "function"
    }
  ],
  "bytecode": "0x608060405234801561001057600080fd5b50604051611f0f380380611f0f83398181016040528101906100329190610170565b816000806101000a81548173ffffffffffffffffffffffffffffffffffffffff021916908373ffffffffffffffffffffffffffffffffffffffff16021790555080600160006101000a81548173ffffffffffffffffffffffffffffffffffffffff021916908373ffffffffffffffffffffffffffffffffffffffff16021790555033600260006101000a81548173ffffffffffffffffffffffffffffffffffffffff021916908373ffffffffffffffffffffffffffffffffffffffff16021790555050506101b0565b600080fd5b600073ffffffffffffffffffffffffffffffffffffffff82169050919050565b600061012b82610100565b9050919050565b600061013d82610120565b9050919050565b61014d81610132565b811461015857600080fd5b50565b60008151905061016a81610144565b92915050565b60008060408385031215610187576101866100fb565b5b60006101958582860161015b565b92505060206101a68582860161015b565b9150509250929050565b611d50806101bf6000396000f3fe608060405234801561001057600080fd5b50600436106100625760003560e01c80633f489914146100675780636f9fb98a146100835780637e09971e146100a2578063a98ad46c146100be578063c55dae63146100dc578063f6950658146100fa575b600080fd5b610081600480360381019061007c91906113c0565b610116565b005b61008b610501565b60405161009992919061140f565b60405180910390f35b6100bc60048036038101906100b79190611496565b6106d2565b005b6100c6610c93565b6040516100d39190611535565b60405180910390f35b6100e4610cb9565b6040516100f19190611535565b60405180910390f35b610114600480360381019061010f9190611496565b610cdd565b005b600260009054906101000a900473ffffffffffffffffffffffffffffffffffffffff1673ffffffffffffffffffffffffffffffffffffffff163373ffffffffffffffffffffffffffffffffffffffff16146101a6576040517f08c379a000000000000000000000000000000000000000000000000000000000815260040161019d906115ad565b60405180910390fd5b600081116101e9576040517f08c379a00000000000000000000000000000000000000000000000000000000081526004016101e090611619565b60405180910390fd5b60006003600084600281111561020257610201611639565b5b600281111561021457610213611639565b5b815260200190815260200160002054905081811015610268576040517f08c379a000000000000000000000000000000000000000000000000000000000815260040161025f906116b4565b60405180910390fd5b82600281111561027b5761027a611639565b5b6001600281111561028f5761028e611639565b5b036103985760008054906101000a900473ffffffffffffffffffffffffffffffffffffffff1673ffffffffffffffffffffffffffffffffffffffff1663a9059cbb33846040518363ffffffff1660e01b81526004016102ef9291906116e3565b6020604051808303816000875af115801561030e573d6000803e3d6000fd5b505050506040513d601f19601f820116820180604052508101906103329190611744565b5082600281111561034657610345611639565b5b3373ffffffffffffffffffffffffffffffffffffffff167e8953c98bf4b420f992a98f3bfa55d17f4e19076029765d02cb1f9a992768688460405161038b9190611771565b60405180910390a36104c6565b8260028111156103ab576103aa611639565b5b6002808111156103be576103bd611639565b5b036104c557600160009054906101000a900473ffffffffffffffffffffffffffffffffffffffff1673ffffffffffffffffffffffffffffffffffffffff1663a9059cbb33846040518363ffffffff1660e01b81526004016104209291906116e3565b6020604051808303816000875af115801561043f573d6000803e3d6000fd5b505050506040513d601f19601f820116820180604052508101906104639190611744565b5082600281111561047757610476611639565b5b3373ffffffffffffffffffffffffffffffffffffffff167e8953c98bf4b420f992a98f3bfa55d17f4e19076029765d02cb1f9a99276868846040516104bc9190611771565b60405180910390a35b5b6040517f08c379a00000000000000000000000000000000000000000000000000000000081526004016104f8906117d8565b60405180910390fd5b600080600260009054906101000a900473ffffffffffffffffffffffffffffffffffffffff1673ffffffffffffffffffffffffffffffffffffffff163373ffffffffffffffffffffffffffffffffffffffff1614610594576040517f08c379a000000000000000000000000000000000000000000000000000000000815260040161058b906115ad565b60405180910390fd5b600160009054906101000a900473ffffffffffffffffffffffffffffffffffffffff1673ffffffffffffffffffffffffffffffffffffffff166370a08231306040518263ffffffff1660e01b81526004016105ef91906117f8565b602060405180830381865afa15801561060c573d6000803e3d6000fd5b505050506040513d601f19601f820116820180604052508101906106309190611828565b915060008054906101000a900473ffffffffffffffffffffffffffffffffffffffff1673ffffffffffffffffffffffffffffffffffffffff166370a08231306040518263ffffffff1660e01b815260040161068b91906117f8565b602060405180830381865afa1580156106a8573d6000803e3d6000fd5b505050506040513d601f19601f820116820180604052508101906106cc9190611828565b90509091565b600260149054906101000a900460ff1615610722576040517f08c379a0000000000000000000000000000000000000000000000000000000008152600401610719906118a1565b60405180910390fd5b6001600260146101000a81548160ff021916908315150217905550600073ffffffffffffffffffffffffffffffffffffffff163373ffffffffffffffffffffffffffffffffffffffff16036107ac576040517f08c379a00000000000000000000000000000000000000000000000000000000081526004016107a39061190d565b60405180910390fd5b600081116107ef576040517f08c379a00000000000000000000000000000000000000000000000000000000081526004016107e690611979565b60405180910390fd5b6000670de0b6b3a76400008261080591906119c8565b905060008060009054906101000a900473ffffffffffffffffffffffffffffffffffffffff1673ffffffffffffffffffffffffffffffffffffffff166370a08231336040518263ffffffff1660e01b815260040161086391906117f8565b602060405180830381865afa158015610880573d6000803e3d6000fd5b505050506040513d601f19601f820116820180604052508101906108a49190611828565b9050828110156108e9576040517f08c379a00000000000000000000000000000000000000000000000000000000081526004016108e090611a56565b60405180910390fd5b60008060009054906101000a900473ffffffffffffffffffffffffffffffffffffffff1673ffffffffffffffffffffffffffffffffffffffff1663dd62ed3e33306040518363ffffffff1660e01b8152600401610947929190611a76565b602060405180830381865afa158015610964573d6000803e3d6000fd5b505050506040513d601f19601f820116820180604052508101906109889190611828565b9050838110156109cd576040517f08c379a00000000000000000000000000000000000000000000000000000000081526004016109c490611aeb565b60405180910390fd5b60008060009054906101000a900473ffffffffffffffffffffffffffffffffffffffff1673ffffffffffffffffffffffffffffffffffffffff166323b872dd8730876040518463ffffffff1660e01b8152600401610a2d93929190611b0b565b6020604051808303816000875af1158015610a4c573d6000803e3d6000fd5b505050506040513d601f19601f82011682018060405250810190610a709190611744565b905080610ab2576040517f08c379a0000000000000000000000000000000000000000000000000000000008152600401610aa990611b8e565b60405180910390fd5b836003600060016002811115610acb57610aca611639565b5b6002811115610add57610adc611639565b5b81526020019081526020016000206000828254610afa9190611bae565b925050819055506000610b0e85600161129b565b90506000600160009054906101000a900473ffffffffffffffffffffffffffffffffffffffff1673ffffffffffffffffffffffffffffffffffffffff1663a9059cbb33846040518363ffffffff1660e01b8152600401610b6f9291906116e3565b6020604051808303816000875af1158015610b8e573d6000803e3d6000fd5b505050506040513d601f19601f82011682018060405250810190610bb29190611744565b90508015610c6e578160036000600280811115610bd257610bd1611639565b5b6002811115610be457610be3611639565b5b81526020019081526020016000206000828254610c019190611bae565b925050819055503073ffffffffffffffffffffffffffffffffffffffff168873ffffffffffffffffffffffffffffffffffffffff167ff936e5e0223c6f3d59c5cad7723aaa9b2b2d68a54065aed03ad5e38675f1f30688604051610c659190611771565b60405180910390a35b5050505050506000600260146101000a81548160ff0219169083151502179055505050565b600160009054906101000a900473ffffffffffffffffffffffffffffffffffffffff1681565b60008054906101000a900473ffffffffffffffffffffffffffffffffffffffff1681565b600260149054906101000a900460ff1615610d2d576040517f08c379a0000000000000000000000000000000000000000000000000000000008152600401610d24906118a1565b60405180910390fd5b6001600260146101000a81548160ff021916908315150217905550600073ffffffffffffffffffffffffffffffffffffffff163373ffffffffffffffffffffffffffffffffffffffff1603610db7576040517f08c379a0000000000000000000000000000000000000000000000000000000008152600401610dae9061190d565b60405180910390fd5b60008111610dfa576040517f08c379a0000000000000000000000000000000000000000000000000000000008152600401610df190611979565b60405180910390fd5b6000620f424082610e0b91906119c8565b90506000600160009054906101000a900473ffffffffffffffffffffffffffffffffffffffff1673ffffffffffffffffffffffffffffffffffffffff166370a08231336040518263ffffffff1660e01b8152600401610e6a91906117f8565b602060405180830381865afa158015610e87573d6000803e3d6000fd5b505050506040513d601f19601f82011682018060405250810190610eab9190611828565b905081811015610ef0576040517f08c379a0000000000000000000000000000000000000000000000000000000008152600401610ee790611a56565b60405180910390fd5b6000600160009054906101000a900473ffffffffffffffffffffffffffffffffffffffff1673ffffffffffffffffffffffffffffffffffffffff1663dd62ed3e33306040518363ffffffff1660e01b8152600401610f4f929190611a76565b602060405180830381865afa158015610f6c573d6000803e3d6000fd5b505050506040513d601f19601f82011682018060405250810190610f909190611828565b905082811015610fd5576040517f08c379a0000000000000000000000000000000000000000000000000000000008152600401610fcc90611aeb565b60405180910390fd5b6000600160009054906101000a900473ffffffffffffffffffffffffffffffffffffffff1673ffffffffffffffffffffffffffffffffffffffff166323b872dd8730876040518463ffffffff1660e01b815260040161103693929190611b0b565b6020604051808303816000875af1158015611055573d6000803e3d6000fd5b505050506040513d601f19601f820116820180604052508101906110799190611744565b9050806110bb576040517f08c379a00000000000000000000000000000000000000000000000000000000081526004016110b290611c2e565b60405180910390fd5b83600360006002808111156110d3576110d2611639565b5b60028111156110e5576110e4611639565b5b815260200190815260200160002060008282546111029190611bae565b92505081905550600061111685600261129b565b905060008060009054906101000a900473ffffffffffffffffffffffffffffffffffffffff1673ffffffffffffffffffffffffffffffffffffffff1663a9059cbb33846040518363ffffffff1660e01b81526004016111769291906116e3565b6020604051808303816000875af1158015611195573d6000803e3d6000fd5b505050506040513d601f19601f820116820180604052508101906111b99190611744565b90508015611276578160036000600160028111156111da576111d9611639565b5b60028111156111ec576111eb611639565b5b815260200190815260200160002060008282546112099190611bae565b925050819055503073ffffffffffffffffffffffffffffffffffffffff168873ffffffffffffffffffffffffffffffffffffffff167ff936e5e0223c6f3d59c5cad7723aaa9b2b2d68a54065aed03ad5e38675f1f3068860405161126d9190611771565b60405180910390a35b5050505050506000600260146101000a81548160ff0219169083151502179055505050565b60006002808111156112b0576112af611639565b5b8260028111156112c3576112c2611639565b5b036112dd57610834836112d691906119c8565b905061135a565b600160028111156112f1576112f0611639565b5b82600281111561130457611303611639565b5b0361131e57610834836113179190611c7d565b9050611359565b6040517f08c379a000000000000000000000000000000000000000000000000000000000815260040161135090611cfa565b60405180910390fd5b5b92915050565b600080fd5b6003811061137257600080fd5b50565b60008135905061138481611365565b92915050565b6000819050919050565b61139d8161138a565b81146113a857600080fd5b50565b6000813590506113ba81611394565b92915050565b600080604083850312156113d7576113d6611360565b5b60006113e585828601611375565b92505060206113f6858286016113ab565b9150509250929050565b6114098161138a565b82525050565b60006040820190506114246000830185611400565b6114316020830184611400565b9392505050565b600073ffffffffffffffffffffffffffffffffffffffff82169050919050565b600061146382611438565b9050919050565b61147381611458565b811461147e57600080fd5b50565b6000813590506114908161146a565b92915050565b600080604083850312156114ad576114ac611360565b5b60006114bb85828601611481565b92505060206114cc858286016113ab565b9150509250929050565b6000819050919050565b60006114fb6114f66114f184611438565b6114d6565b611438565b9050919050565b600061150d826114e0565b9050919050565b600061151f82611502565b9050919050565b61152f81611514565b82525050565b600060208201905061154a6000830184611526565b92915050565b600082825260208201905092915050565b7f4f6e6c79206f776e65722063616e206163636573730000000000000000000000600082015250565b6000611597601583611550565b91506115a282611561565b602082019050919050565b600060208201905081810360008301526115c68161158a565b9050919050565b7f62616c616e6365206973206c6573730000000000000000000000000000000000600082015250565b6000611603600f83611550565b915061160e826115cd565b602082019050919050565b60006020820190508181036000830152611632816115f6565b9050919050565b7f4e487b7100000000000000000000000000000000000000000000000000000000600052602160045260246000fd5b7f496e73756666696369656e7420636f6e74726163742062616c616e6365000000600082015250565b600061169e601d83611550565b91506116a982611668565b602082019050919050565b600060208201905081810360008301526116cd81611691565b9050919050565b6116dd81611458565b82525050565b60006040820190506116f860008301856116d4565b6117056020830184611400565b9392505050565b60008115159050919050565b6117218161170c565b811461172c57600080fd5b50565b60008151905061173e81611718565b92915050565b60006020828403121561175a57611759611360565b5b60006117688482850161172f565b91505092915050565b60006020820190506117866000830184611400565b92915050565b7f546f6b656e206e6f7420646566696e6564000000000000000000000000000000600082015250565b60006117c2601183611550565b91506117cd8261178c565b602082019050919050565b600060208201905081810360008301526117f1816117b5565b9050919050565b600060208201905061180d60008301846116d4565b92915050565b60008151905061182281611394565b92915050565b60006020828403121561183e5761183d611360565b5b600061184c84828501611813565b91505092915050565b7f5265656e7472616e6379206e6f7420616c6c6f77656400000000000000000000600082015250565b600061188b601683611550565b915061189682611855565b602082019050919050565b600060208201905081810360008301526118ba8161187e565b9050919050565b7f5a65726f206e6f7420616c6c6f77656400000000000000000000000000000000600082015250565b60006118f7601083611550565b9150611902826118c1565b602082019050919050565b60006020820190508181036000830152611926816118ea565b9050919050565b7f43616e6e6f742073776170207a65726f20616d6f756e74000000000000000000600082015250565b6000611963601783611550565b915061196e8261192d565b602082019050919050565b6000602082019050818103600083015261199281611956565b9050919050565b7f4e487b7100000000000000000000000000000000000000000000000000000000600052601160045260246000fd5b60006119d38261138a565b91506119de8361138a565b92508282026119ec8161138a565b91508282048414831517611a0357611a02611999565b5b5092915050565b7f596f75722062616c616e6365206973206e6f7420656e6f756768000000000000600082015250565b6000611a40601a83611550565b9150611a4b82611a0a565b602082019050919050565b60006020820190508181036000830152611a6f81611a33565b9050919050565b6000604082019050611a8b60008301856116d4565b611a9860208301846116d4565b9392505050565b7f546f6b656e20616c6c6f77616e636520746f6f206c6f77000000000000000000600082015250565b6000611ad5601783611550565b9150611ae082611a9f565b602082019050919050565b60006020820190508181036000830152611b0481611ac8565b9050919050565b6000606082019050611b2060008301866116d4565b611b2d60208301856116d4565b611b3a6040830184611400565b949350505050565b7f4578637574696f6e206661696c65640000000000000000000000000000000000600082015250565b6000611b78600f83611550565b9150611b8382611b42565b602082019050919050565b60006020820190508181036000830152611ba781611b6b565b9050919050565b6000611bb98261138a565b9150611bc48361138a565b9250828201905080821115611bdc57611bdb611999565b5b92915050565b7f457865637574696f6e206661696c656400000000000000000000000000000000600082015250565b6000611c18601083611550565b9150611c2382611be2565b602082019050919050565b60006020820190508181036000830152611c4781611c0b565b9050919050565b7f4e487b7100000000000000000000000000000000000000000000000000000000600052601260045260246000fd5b6000611c888261138a565b9150611c938361138a565b925082611ca357611ca2611c4e565b5b828204905092915050565b7f556e737570706f727465642063757272656e6379000000000000000000000000600082015250565b6000611ce4601483611550565b9150611cef82611cae565b602082019050919050565b60006020820190508181036000830152611d1381611cd7565b905091905056fea2646970667358221220f661d3bbd2a7f3cfcdaab782b076cb6c8b1f02143fd28c84ee3a1da85c0a852064736f6c634300081b0033",
  "linkReferences": {},
  "deployedLinkReferences": {}
}